:0F098800010801010B00010A00010D64010C645C
:050A0200D2A9D2AF22D1
:0C09DB00438902758CA4758AA4D28C227A
:03000B00020912D5
:10091200C0E0C0D0E509F47002F509E50AC3950903
:100922004002D291E50BC395094002D290E50BC378
:1009320095095002C290E50AC395095002C2910579
:0609420009D0D0D0E03224
:10097000EF1FAC0670011E4C600D0000007D0B7C6B
:07098000BEDCFEDDFC80E996
:01098700224D
:0D09A7008F0B8D0AD292C293D294C295227A
:0D09B4008F0B8D0AC292D293C294D295226D
:0909F100C292C293C294C2952285
:0D09C1008F0B8D0AC292C293D294C2952270
:0D09CE008F0B8D0AD292C293C294C2952263
:0F099800438920758DFD758BFDD28E7598522287
:0809FA008F993099FDC299228A
:0909E700E4FF3098FDAF99C298BD
:0109F00022E4
:1009480030A10A30A007AD0CAF0D0209A720A10AFB
:1009580030A007AD0C7FFF0209CE30A10A20A00706
:080968007DFFAF0D1209C12251
:10088C00120A021209DB120998750D64750D64E4E5
:02089C00F590D5
:10089E00E4F50E3098051209E78F0EE50E64D07060
:1008AE0014E50870047F0180027F008F08EF640159
:1008BE0070031209F1E5087003120948E50E60D0C5
:1008CE00243F601614601C14601E146024240470EF
:1008DE0027AD0AAF0B1209A7801EAD0AAF0B120986
:1008EE00B480151209F180107DFFAF0B1209C18083
:1008FE0007AD0A7FFF1209CE7F147E001209701217
:02090E0009F1ED
:02091000808CD9
:03000000020800F3
:0C080000787FE4F6D8FD75810E020847F1
:10080C0002088CE493A3F8E493A34003F68001F26E
:10081C0008DFF48029E493A3F85407240CC8C333ED
:10082C00C4540F4420C8834004F456800146F6DFBC
:10083C00E4800B0102040810204080900988E47EBB
:10084C00019360BCA3FF543F30E509541FFEE493B1
:10085C00A360010ECF54C025E060A840B8E493A378
:10086C00FAE493A3F8E493A3C8C582C8CAC583CAA3
:10087C00F0A3C8C582C8CAC583CADFE9DEE780BE5B
:01099700005F
:00000001FF
